{
  "_format": "hh-sol-artifact-1",
  "contractName": "VibeSender",
  "sourceName": "contracts/VibeSender.sol",
  "abi": [
    {
      "inputs": [],
      "stateMutability": "payable",
      "type": "constructor"
    },
    {
      "anonymous": false,
      "inputs": [
        {
          "indexed": true,
          "internalType": "address",
          "name": "from",
          "type": "address"
        },
        {
          "indexed": false,
          "internalType": "uint256",
          "name": "timestamp",
          "type": "uint256"
        },
        {
          "indexed": false,
          "internalType": "bool",
          "name": "_isGood",
          "type": "bool"
        },
        {
          "indexed": false,
          "internalType": "string",
          "name": "message",
          "type": "string"
        }
      ],
      "name": "NewVibe",
      "type": "event"
    },
    {
      "inputs": [
        {
          "internalType": "address",
          "name": "",
          "type": "address"
        }
      ],
      "name": "badVibesBalance",
      "outputs": [
        {
          "internalType": "uint256",
          "name": "",
          "type": "uint256"
        }
      ],
      "stateMutability": "view",
      "type": "function"
    },
    {
      "inputs": [],
      "name": "getAllVibes",
      "outputs": [
        {
          "components": [
            {
              "internalType": "address",
              "name": "viber",
              "type": "address"
            },
            {
              "internalType": "bool",
              "name": "isGood",
              "type": "bool"
            },
            {
              "internalType": "string",
              "name": "message",
              "type": "string"
            },
            {
              "internalType": "uint256",
              "name": "timestamp",
              "type": "uint256"
            }
          ],
          "internalType": "struct VibeSender.Vibe[]",
          "name": "",
          "type": "tuple[]"
        }
      ],
      "stateMutability": "view",
      "type": "function"
    },
    {
      "inputs": [],
      "name": "getMyVibeScore",
      "outputs": [
        {
          "internalType": "int256",
          "name": "",
          "type": "int256"
        }
      ],
      "stateMutability": "view",
      "type": "function"
    },
    {
      "inputs": [],
      "name": "getMyVibesCount",
      "outputs": [
        {
          "internalType": "uint256",
          "name": "",
          "type": "uint256"
        }
      ],
      "stateMutability": "view",
      "type": "function"
    },
    {
      "inputs": [
        {
          "internalType": "bool",
          "name": "_good",
          "type": "bool"
        }
      ],
      "name": "getMyVibesCountByType",
      "outputs": [
        {
          "internalType": "uint256",
          "name": "",
          "type": "uint256"
        }
      ],
      "stateMutability": "view",
      "type": "function"
    },
    {
      "inputs": [],
      "name": "getTotalVibes",
      "outputs": [
        {
          "internalType": "uint256",
          "name": "",
          "type": "uint256"
        }
      ],
      "stateMutability": "view",
      "type": "function"
    },
    {
      "inputs": [
        {
          "internalType": "bool",
          "name": "_good",
          "type": "bool"
        }
      ],
      "name": "getTotalVibesByType",
      "outputs": [
        {
          "internalType": "uint256",
          "name": "",
          "type": "uint256"
        }
      ],
      "stateMutability": "view",
      "type": "function"
    },
    {
      "inputs": [
        {
          "internalType": "address",
          "name": "",
          "type": "address"
        }
      ],
      "name": "goodVibesBalance",
      "outputs": [
        {
          "internalType": "uint256",
          "name": "",
          "type": "uint256"
        }
      ],
      "stateMutability": "view",
      "type": "function"
    },
    {
      "inputs": [
        {
          "internalType": "address",
          "name": "",
          "type": "address"
        }
      ],
      "name": "lastWavedAt",
      "outputs": [
        {
          "internalType": "uint256",
          "name": "",
          "type": "uint256"
        }
      ],
      "stateMutability": "view",
      "type": "function"
    },
    {
      "inputs": [
        {
          "internalType": "string",
          "name": "_message",
          "type": "string"
        },
        {
          "internalType": "bool",
          "name": "_isGood",
          "type": "bool"
        }
      ],
      "name": "sendVibe",
      "outputs": [],
      "stateMutability": "nonpayable",
      "type": "function"
    }
  ],
  "bytecode": "0x60806040526200004f6040518060400160405280601481526020017f5669626553656e64657220436f6e7472616374210000000000000000000000008152506200007760201b62000f031760201c565b606444426200005f9190620001c4565b6200006b919062000261565b60068190555062000308565b62000117816040516024016200008e919062000184565b6040516020818303038152906040527f41304fac000000000000000000000000000000000000000000000000000000007bffffffffffffffffffffffffffffffffffffffffffffffffffffffff19166020820180517bffffffffffffffffffffffffffffffffffffffffffffffffffffffff83818316178352505050506200011a60201b60201c565b50565b60008151905060006a636f6e736f6c652e6c6f679050602083016000808483855afa5050505050565b60006200015082620001a8565b6200015c8185620001b3565b93506200016e8185602086016200022b565b6200017981620002f7565b840191505092915050565b60006020820190508181036000830152620001a0818462000143565b905092915050565b600081519050919050565b600082825260208201905092915050565b6000620001d18262000221565b9150620001de8362000221565b9250827fffffffffffffffffffffffffffffffffffffffffffffffffffffffffffffffff0382111562000216576200021562000299565b5b828201905092915050565b6000819050919050565b60005b838110156200024b5780820151818401526020810190506200022e565b838111156200025b576000848401525b50505050565b60006200026e8262000221565b91506200027b8362000221565b9250826200028e576200028d620002c8565b5b828206905092915050565b7f4e487b7100000000000000000000000000000000000000000000000000000000600052601160045260246000fd5b7f4e487b7100000000000000000000000000000000000000000000000000000000600052601260045260246000fd5b6000601f19601f8301169050919050565b611f2680620003186000396000f3fe608060405234801561001057600080fd5b506004361061009e5760003560e01c8063a42a466311610066578063a42a46631461016d578063accff13d1461019d578063beb74d1f146101bb578063d56d054b146101d9578063eb0d91cf146102095761009e565b80630999d813146100a35780630cdd39e3146100c157806336375d54146100f15780638b9805ab146101215780638ce890f314610151575b600080fd5b6100ab610227565b6040516100b891906117fc565b60405180910390f35b6100db60048036038101906100d6919061140c565b610435565b6040516100e891906119c1565b60405180910390f35b61010b60048036038101906101069190611435565b61044d565b60405161011891906119c1565b60405180910390f35b61013b6004803603810190610136919061140c565b61059e565b60405161014891906119c1565b60405180910390f35b61016b6004803603810190610166919061145e565b6105b6565b005b6101876004803603810190610182919061140c565b610b98565b60405161019491906119c1565b60405180910390f35b6101a5610bb0565b6040516101b291906119c1565b60405180910390f35b6101c3610c0b565b6040516101d091906119c1565b60405180910390f35b6101f360048036038101906101ee9190611435565b610cdf565b60405161020091906119c1565b60405180910390f35b610211610d97565b60405161021e91906117da565b60405180910390f35b600061024b604051806060016040528060268152602001611dc96026913933610f9c565b6000600160003373ffffffffffffffffffffffffffffffffffffffff1673ffffffffffffffffffffffffffffffffffffffff168152602001908152602001600020546000803373ffffffffffffffffffffffffffffffffffffffff1673ffffffffffffffffffffffffffffffffffffffff168152602001908152602001600020546102d69190611b42565b90506000811315610307576103026040518060600160405280603b8152602001611def603b9139610f03565b610376565b600081121561033657610331604051806080016040528060438152602001611e2a60439139610f03565b610375565b6103746040518060400160405280601c81526020017f2d2d2d204920616d206e6f7420737572652061626f757420796f752100000000815250610f03565b5b5b61042e6040518060400160405280601281526020017f2d2d2d20566962652053636f72653a2025730000000000000000000000000000815250600083126103f2576040518060400160405280600481526020017f476f6f6400000000000000000000000000000000000000000000000000000000815250610429565b6040518060400160405280600381526020017f42616400000000000000000000000000000000000000000000000000000000008152505b611038565b8091505090565b60016020528060005260406000206000915090505481565b600080821561049c576000803373ffffffffffffffffffffffffffffffffffffffff1673ffffffffffffffffffffffffffffffffffffffff1681526020019081526020016000205490506104df565b600160003373ffffffffffffffffffffffffffffffffffffffff1673ffffffffffffffffffffffffffffffffffffffff1681526020019081526020016000205490505b6105956040518060400160405280601581526020017f596f752073656e742025642025732076696265732100000000000000000000008152508285610559576040518060400160405280600381526020017f4261640000000000000000000000000000000000000000000000000000000000815250610590565b6040518060400160405280600481526020017f476f6f64000000000000000000000000000000000000000000000000000000008152505b6110d4565b80915050919050565b60006020528060005260406000206000915090505481565b4260b4600260003373ffffffffffffffffffffffffffffffffffffffff1673ffffffffffffffffffffffffffffffffffffffff168152602001908152602001600020546106039190611aec565b10610643576040517f08c379a000000000000000000000000000000000000000000000000000000000815260040161063a906119a1565b60405180910390fd5b42600260003373ffffffffffffffffffffffffffffffffffffffff1673ffffffffffffffffffffffffffffffffffffffff1681526020019081526020016000208190555080156107395760016000803373ffffffffffffffffffffffffffffffffffffffff1673ffffffffffffffffffffffffffffffffffffffff168152602001908152602001600020546106d89190611aec565b6000803373ffffffffffffffffffffffffffffffffffffffff1673ffffffffffffffffffffffffffffffffffffffff1681526020019081526020016000208190555060016004600082825461072d9190611aec565b925050819055506107e2565b60018060003373ffffffffffffffffffffffffffffffffffffffff1673ffffffffffffffffffffffffffffffffffffffff168152602001908152602001600020546107849190611aec565b600160003373ffffffffffffffffffffffffffffffffffffffff1673ffffffffffffffffffffffffffffffffffffffff168152602001908152602001600020819055506001600560008282546107da9190611aec565b925050819055505b6108986040518060400160405280602081526020017f257320766962652072656365697665642077697468206d6573736167652025738152508261085b576040518060400160405280600381526020017f4261640000000000000000000000000000000000000000000000000000000000815250610892565b6040518060400160405280600481526020017f476f6f64000000000000000000000000000000000000000000000000000000008152505b84611173565b600360405180608001604052803373ffffffffffffffffffffffffffffffffffffffff168152602001831515815260200184815260200142815250908060018154018082558091505060019003906000526020600020906003020160009091909190915060008201518160000160006101000a81548173ffffffffffffffffffffffffffffffffffffffff021916908373ffffffffffffffffffffffffffffffffffffffff16021790555060208201518160000160146101000a81548160ff021916908315150217905550604082015181600101908051906020019061097f9291906112d7565b506060820151816002015550506064600654424461099d9190611aec565b6109a79190611aec565b6109b19190611c9c565b6006819055506109f86040518060400160405280601681526020017f52616e646f6d20232067656e6572617465643a20256400000000000000000000815250600654611212565b3373ffffffffffffffffffffffffffffffffffffffff167f8155d4da5cd26715e4ede2edb3a70e215b2b555ab1c6de1c3d1fd4c84a8d1835428385604051610a42939291906119dc565b60405180910390a2601460065411610b9457600081610a6757655af3107a4000610a6f565b65b5e620f480005b65ffffffffffff16905047811115610abc576040517f08c379a0000000000000000000000000000000000000000000000000000000008152600401610ab390611961565b60405180910390fd5b60003373ffffffffffffffffffffffffffffffffffffffff1682604051610ae2906117c5565b60006040518083038185875af1925050503d8060008114610b1f576040519150601f19603f3d011682016040523d82523d6000602084013e610b24565b606091505b5050905080610b68576040517f08c379a0000000000000000000000000000000000000000000000000000000008152600401610b5f90611981565b60405180910390fd5b8015610b9157610b906040518060800160405280605e8152602001611e93605e913983611212565b5b50505b5050565b60026020528060005260406000206000915090505481565b600080600554600454610bc39190611aec565b9050610c046040518060400160405280602081526020017f4120746f74616c2025642076696265732068617665206265656e2073656e742181525082611212565b8091505090565b600080600160003373ffffffffffffffffffffffffffffffffffffffff1673ffffffffffffffffffffffffffffffffffffffff168152602001908152602001600020546000803373ffffffffffffffffffffffffffffffffffffffff1673ffffffffffffffffffffffffffffffffffffffff16815260200190815260200160002054610c979190611aec565b9050610cd86040518060400160405280601281526020017f596f752073656e7420256420766962657321000000000000000000000000000081525082611212565b8091505090565b60008082610cef57600554610cf3565b6004545b9050610d8e604051806060016040528060268152602001611e6d602691398285610d52576040518060400160405280600381526020017f4261640000000000000000000000000000000000000000000000000000000000815250610d89565b6040518060400160405280600481526020017f476f6f64000000000000000000000000000000000000000000000000000000008152505b6110d4565b80915050919050565b60606003805480602002602001604051908101604052809291908181526020016000905b82821015610efa57838290600052602060002090600302016040518060800160405290816000820160009054906101000a900473ffffffffffffffffffffffffffffffffffffffff1673ffffffffffffffffffffffffffffffffffffffff1673ffffffffffffffffffffffffffffffffffffffff1681526020016000820160149054906101000a900460ff16151515158152602001600182018054610e5f90611c6a565b80601f0160208091040260200160405190810160405280929190818152602001828054610e8b90611c6a565b8015610ed85780601f10610ead57610100808354040283529160200191610ed8565b820191906000526020600020905b815481529060010190602001808311610ebb57829003601f168201915b5050505050815260200160028201548152505081526020019060010190610dbb565b50505050905090565b610f9981604051602401610f179190611817565b6040516020818303038152906040527f41304fac000000000000000000000000000000000000000000000000000000007bffffffffffffffffffffffffffffffffffffffffffffffffffffffff19166020820180517bffffffffffffffffffffffffffffffffffffffffffffffffffffffff83818316178352505050506112ae565b50565b6110348282604051602401610fb2929190611839565b6040516020818303038152906040527f319af333000000000000000000000000000000000000000000000000000000007bffffffffffffffffffffffffffffffffffffffffffffffffffffffff19166020820180517bffffffffffffffffffffffffffffffffffffffffffffffffffffffff83818316178352505050506112ae565b5050565b6110d0828260405160240161104e929190611869565b6040516020818303038152906040527f4b5c4277000000000000000000000000000000000000000000000000000000007bffffffffffffffffffffffffffffffffffffffffffffffffffffffff19166020820180517bffffffffffffffffffffffffffffffffffffffffffffffffffffffff83818316178352505050506112ae565b5050565b61116e8383836040516024016110ec9392919061191c565b6040516020818303038152906040527fa3f5c739000000000000000000000000000000000000000000000000000000007bffffffffffffffffffffffffffffffffffffffffffffffffffffffff19166020820180517bffffffffffffffffffffffffffffffffffffffffffffffffffffffff83818316178352505050506112ae565b505050565b61120d83838360405160240161118b939291906118a0565b6040516020818303038152906040527f2ced7cef000000000000000000000000000000000000000000000000000000007bffffffffffffffffffffffffffffffffffffffffffffffffffffffff19166020820180517bffffffffffffffffffffffffffffffffffffffffffffffffffffffff83818316178352505050506112ae565b505050565b6112aa82826040516024016112289291906118ec565b6040516020818303038152906040527f9710a9d0000000000000000000000000000000000000000000000000000000007bffffffffffffffffffffffffffffffffffffffffffffffffffffffff19166020820180517bffffffffffffffffffffffffffffffffffffffffffffffffffffffff83818316178352505050506112ae565b5050565b60008151905060006a636f6e736f6c652e6c6f679050602083016000808483855afa5050505050565b8280546112e390611c6a565b90600052602060002090601f016020900481019282611305576000855561134c565b82601f1061131e57805160ff191683800117855561134c565b8280016001018555821561134c579182015b8281111561134b578251825591602001919060010190611330565b5b509050611359919061135d565b5090565b5b8082111561137657600081600090555060010161135e565b5090565b600061138d61138884611a4b565b611a1a565b9050828152602081018484840111156113a557600080fd5b6113b0848285611c28565b509392505050565b6000813590506113c781611d9a565b92915050565b6000813590506113dc81611db1565b92915050565b600082601f8301126113f357600080fd5b813561140384826020860161137a565b91505092915050565b60006020828403121561141e57600080fd5b600061142c848285016113b8565b91505092915050565b60006020828403121561144757600080fd5b6000611455848285016113cd565b91505092915050565b6000806040838503121561147157600080fd5b600083013567ffffffffffffffff81111561148b57600080fd5b611497858286016113e2565b92505060206114a8858286016113cd565b9150509250929050565b60006114be8383611744565b905092915050565b6114cf81611bd6565b82525050565b6114de81611bd6565b82525050565b60006114ef82611a8b565b6114f98185611aae565b93508360208202850161150b85611a7b565b8060005b85811015611547578484038952815161152885826114b2565b945061153383611aa1565b925060208a0199505060018101905061150f565b50829750879550505050505092915050565b61156281611be8565b82525050565b61157181611be8565b82525050565b61158081611bf4565b82525050565b600061159182611a96565b61159b8185611aca565b93506115ab818560208601611c37565b6115b481611d89565b840191505092915050565b60006115ca82611a96565b6115d48185611adb565b93506115e4818560208601611c37565b6115ed81611d89565b840191505092915050565b6000611605604483611adb565b91507f59696b65732c207468697320697320756e666f7274756e61746520776520646f60008301527f6e2774206861766520616e79206d6f726520657468657220746f20676976652060208301527f3a27292e000000000000000000000000000000000000000000000000000000006040830152606082019050919050565b6000611691602e83611adb565b91507f4f6f7073212c204661696c656420746f207769746864726177206d6f6e65792060008301527f66726f6d20636f6e74726163742e0000000000000000000000000000000000006020830152604082019050919050565b60006116f7600783611adb565b91507f5761697420336d000000000000000000000000000000000000000000000000006000830152602082019050919050565b6000611737600083611abf565b9150600082019050919050565b600060808301600083015161175c60008601826114c6565b50602083015161176f6020860182611559565b50604083015184820360408601526117878282611586565b915050606083015161179c60608601826117a7565b508091505092915050565b6117b081611c1e565b82525050565b6117bf81611c1e565b82525050565b60006117d08261172a565b9150819050919050565b600060208201905081810360008301526117f481846114e4565b905092915050565b60006020820190506118116000830184611577565b92915050565b6000602082019050818103600083015261183181846115bf565b905092915050565b6000604082019050818103600083015261185381856115bf565b905061186260208301846114d5565b9392505050565b6000604082019050818103600083015261188381856115bf565b9050818103602083015261189781846115bf565b90509392505050565b600060608201905081810360008301526118ba81866115bf565b905081810360208301526118ce81856115bf565b905081810360408301526118e281846115bf565b9050949350505050565b6000604082019050818103600083015261190681856115bf565b905061191560208301846117b6565b9392505050565b6000606082019050818103600083015261193681866115bf565b905061194560208301856117b6565b818103604083015261195781846115bf565b9050949350505050565b6000602082019050818103600083015261197a816115f8565b9050919050565b6000602082019050818103600083015261199a81611684565b9050919050565b600060208201905081810360008301526119ba816116ea565b9050919050565b60006020820190506119d660008301846117b6565b92915050565b60006060820190506119f160008301866117b6565b6119fe6020830185611568565b8181036040830152611a1081846115bf565b9050949350505050565b6000604051905081810181811067ffffffffffffffff82111715611a4157611a40611d5a565b5b8060405250919050565b600067ffffffffffffffff821115611a6657611a65611d5a565b5b601f19601f8301169050602081019050919050565b6000819050602082019050919050565b600081519050919050565b600081519050919050565b6000602082019050919050565b600082825260208201905092915050565b600081905092915050565b600082825260208201905092915050565b600082825260208201905092915050565b6000611af782611c1e565b9150611b0283611c1e565b9250827fffffffffffffffffffffffffffffffffffffffffffffffffffffffffffffffff03821115611b3757611b36611ccd565b5b828201905092915050565b6000611b4d82611bf4565b9150611b5883611bf4565b9250827f800000000000000000000000000000000000000000000000000000000000000001821260008412151615611b9357611b92611ccd565b5b827f7fffffffffffffffffffffffffffffffffffffffffffffffffffffffffffffff018213600084121615611bcb57611bca611ccd565b5b828203905092915050565b6000611be182611bfe565b9050919050565b60008115159050919050565b6000819050919050565b600073ffffffffffffffffffffffffffffffffffffffff82169050919050565b6000819050919050565b82818337600083830152505050565b60005b83811015611c55578082015181840152602081019050611c3a565b83811115611c64576000848401525b50505050565b60006002820490506001821680611c8257607f821691505b60208210811415611c9657611c95611d2b565b5b50919050565b6000611ca782611c1e565b9150611cb283611c1e565b925082611cc257611cc1611cfc565b5b828206905092915050565b7f4e487b7100000000000000000000000000000000000000000000000000000000600052601160045260246000fd5b7f4e487b7100000000000000000000000000000000000000000000000000000000600052601260045260246000fd5b7f4e487b7100000000000000000000000000000000000000000000000000000000600052602260045260246000fd5b7f4e487b7100000000000000000000000000000000000000000000000000000000600052604160045260246000fd5b6000601f19601f8301169050919050565b611da381611bd6565b8114611dae57600080fd5b50565b611dba81611be8565b8114611dc557600080fd5b5056fe43616c63756c6174696e672074686520766962652073636f726520666f723a202573202e2e2e2d2d2d20596f752061726520646566696e6974656c792061206e69636520706572736f6e2c20706c7a20646f6e74206368616e6765203a272920212d2d2d20596f6f6f206368696c6c2c206e6f626f647920697320676f696e6720746f206c696b6520796f7520776974682074686174206174746974756465203a4020214120746f74616c206f662025642025732076696265732068617665206265656e2073656e74214c75636b7920796f75212c20796f7520726563696576656420256420657468657220617320612072657761726420666f7220796f757220766962652028476f6f6420766962657320676574206d6f72652c2077696e6b2c2077696e6b2129a2646970667358221220c95710c68c2a6499ac584e3df443a461c157606d46888671253736cc0e1dfb4864736f6c63430008000033",
  "linkReferences": {},
  "deployedLinkReferences": {}
}